{
  "_format": "hh-sol-artifact-1",
  "contractName": "SpringTenMarketplace",
  "sourceName": "contracts/SpringTenMarketplace.sol",
  "abi": [
    {
      "inputs": [],
      "stateMutability": "nonpayable",
      "type": "constructor"
    },
    {
      "anonymous": false,
      "inputs": [
        {
          "indexed": true,
          "internalType": "uint256",
          "name": "itemId",
          "type": "uint256"
        },
        {
          "indexed": true,
          "internalType": "address",
          "name": "winner",
          "type": "address"
        },
        {
          "indexed": false,
          "internalType": "uint256",
          "name": "winningBid",
          "type": "uint256"
        }
      ],
      "name": "AuctionEnded",
      "type": "event"
    },
    {
      "anonymous": false,
      "inputs": [
        {
          "indexed": true,
          "internalType": "uint256",
          "name": "itemId",
          "type": "uint256"
        },
        {
          "indexed": true,
          "internalType": "address",
          "name": "bidder",
          "type": "address"
        },
        {
          "indexed": false,
          "internalType": "uint256",
          "name": "amount",
          "type": "uint256"
        }
      ],
      "name": "BidPlaced",
      "type": "event"
    },
    {
      "anonymous": false,
      "inputs": [
        {
          "indexed": true,
          "internalType": "uint256",
          "name": "itemId",
          "type": "uint256"
        },
        {
          "indexed": true,
          "internalType": "address",
          "name": "nftContract",
          "type": "address"
        },
        {
          "indexed": true,
          "internalType": "uint256",
          "name": "tokenId",
          "type": "uint256"
        },
        {
          "indexed": false,
          "internalType": "address",
          "name": "seller",
          "type": "address"
        },
        {
          "indexed": false,
          "internalType": "address",
          "name": "owner",
          "type": "address"
        },
        {
          "indexed": false,
          "internalType": "uint256",
          "name": "price",
          "type": "uint256"
        },
        {
          "indexed": false,
          "internalType": "bool",
          "name": "isAuction",
          "type": "bool"
        }
      ],
      "name": "MarketItemCreated",
      "type": "event"
    },
    {
      "anonymous": false,
      "inputs": [
        {
          "indexed": true,
          "internalType": "uint256",
          "name": "itemId",
          "type": "uint256"
        },
        {
          "indexed": true,
          "internalType": "address",
          "name": "nftContract",
          "type": "address"
        },
        {
          "indexed": true,
          "internalType": "uint256",
          "name": "tokenId",
          "type": "uint256"
        },
        {
          "indexed": false,
          "internalType": "address",
          "name": "seller",
          "type": "address"
        },
        {
          "indexed": false,
          "internalType": "address",
          "name": "buyer",
          "type": "address"
        },
        {
          "indexed": false,
          "internalType": "uint256",
          "name": "price",
          "type": "uint256"
        }
      ],
      "name": "MarketItemSold",
      "type": "event"
    },
    {
      "anonymous": false,
      "inputs": [
        {
          "indexed": true,
          "internalType": "address",
          "name": "previousOwner",
          "type": "address"
        },
        {
          "indexed": true,
          "internalType": "address",
          "name": "newOwner",
          "type": "address"
        }
      ],
      "name": "OwnershipTransferred",
      "type": "event"
    },
    {
      "inputs": [
        {
          "internalType": "uint256",
          "name": "itemId",
          "type": "uint256"
        }
      ],
      "name": "cancelListing",
      "outputs": [],
      "stateMutability": "nonpayable",
      "type": "function"
    },
    {
      "inputs": [
        {
          "internalType": "address",
          "name": "nftContract",
          "type": "address"
        },
        {
          "internalType": "uint256",
          "name": "tokenId",
          "type": "uint256"
        },
        {
          "internalType": "uint256",
          "name": "price",
          "type": "uint256"
        },
        {
          "internalType": "bool",
          "name": "isAuction",
          "type": "bool"
        },
        {
          "internalType": "uint256",
          "name": "auctionDuration",
          "type": "uint256"
        }
      ],
      "name": "createMarketItem",
      "outputs": [],
      "stateMutability": "payable",
      "type": "function"
    },
    {
      "inputs": [
        {
          "internalType": "uint256",
          "name": "itemId",
          "type": "uint256"
        }
      ],
      "name": "createMarketSale",
      "outputs": [],
      "stateMutability": "payable",
      "type": "function"
    },
    {
      "inputs": [
        {
          "internalType": "uint256",
          "name": "itemId",
          "type": "uint256"
        }
      ],
      "name": "endAuction",
      "outputs": [],
      "stateMutability": "nonpayable",
      "type": "function"
    },
    {
      "inputs": [],
      "name": "fetchMarketItems",
      "outputs": [
        {
          "components": [
            {
              "internalType": "uint256",
              "name": "itemId",
              "type": "uint256"
            },
            {
              "internalType": "address",
              "name": "nftContract",
              "type": "address"
            },
            {
              "internalType": "uint256",
              "name": "tokenId",
              "type": "uint256"
            },
            {
              "internalType": "address",
              "name": "seller",
              "type": "address"
            },
            {
              "internalType": "address",
              "name": "owner",
              "type": "address"
            },
            {
              "internalType": "uint256",
              "name": "price",
              "type": "uint256"
            },
            {
              "internalType": "bool",
              "name": "sold",
              "type": "bool"
            },
            {
              "internalType": "bool",
              "name": "isAuction",
              "type": "bool"
            },
            {
              "internalType": "uint256",
              "name": "auctionEndTime",
              "type": "uint256"
            },
            {
              "internalType": "address",
              "name": "highestBidder",
              "type": "address"
            },
            {
              "internalType": "uint256",
              "name": "highestBid",
              "type": "uint256"
            }
          ],
          "internalType": "struct SpringTenMarketplace.MarketItem[]",
          "name": "",
          "type": "tuple[]"
        }
      ],
      "stateMutability": "view",
      "type": "function"
    },
    {
      "inputs": [
        {
          "internalType": "address",
          "name": "user",
          "type": "address"
        }
      ],
      "name": "fetchUserListings",
      "outputs": [
        {
          "components": [
            {
              "internalType": "uint256",
              "name": "itemId",
              "type": "uint256"
            },
            {
              "internalType": "address",
              "name": "nftContract",
              "type": "address"
            },
            {
              "internalType": "uint256",
              "name": "tokenId",
              "type": "uint256"
            },
            {
              "internalType": "address",
              "name": "seller",
              "type": "address"
            },
            {
              "internalType": "address",
              "name": "owner",
              "type": "address"
            },
            {
              "internalType": "uint256",
              "name": "price",
              "type": "uint256"
            },
            {
              "internalType": "bool",
              "name": "sold",
              "type": "bool"
            },
            {
              "internalType": "bool",
              "name": "isAuction",
              "type": "bool"
            },
            {
              "internalType": "uint256",
              "name": "auctionEndTime",
              "type": "uint256"
            },
            {
              "internalType": "address",
              "name": "highestBidder",
              "type": "address"
            },
            {
              "internalType": "uint256",
              "name": "highestBid",
              "type": "uint256"
            }
          ],
          "internalType": "struct SpringTenMarketplace.MarketItem[]",
          "name": "",
          "type": "tuple[]"
        }
      ],
      "stateMutability": "view",
      "type": "function"
    },
    {
      "inputs": [
        {
          "internalType": "address",
          "name": "user",
          "type": "address"
        }
      ],
      "name": "fetchUserPurchases",
      "outputs": [
        {
          "components": [
            {
              "internalType": "uint256",
              "name": "itemId",
              "type": "uint256"
            },
            {
              "internalType": "address",
              "name": "nftContract",
              "type": "address"
            },
            {
              "internalType": "uint256",
              "name": "tokenId",
              "type": "uint256"
            },
            {
              "internalType": "address",
              "name": "seller",
              "type": "address"
            },
            {
              "internalType": "address",
              "name": "owner",
              "type": "address"
            },
            {
              "internalType": "uint256",
              "name": "price",
              "type": "uint256"
            },
            {
              "internalType": "bool",
              "name": "sold",
              "type": "bool"
            },
            {
              "internalType": "bool",
              "name": "isAuction",
              "type": "bool"
            },
            {
              "internalType": "uint256",
              "name": "auctionEndTime",
              "type": "uint256"
            },
            {
              "internalType": "address",
              "name": "highestBidder",
              "type": "address"
            },
            {
              "internalType": "uint256",
              "name": "highestBid",
              "type": "uint256"
            }
          ],
          "internalType": "struct SpringTenMarketplace.MarketItem[]",
          "name": "",
          "type": "tuple[]"
        }
      ],
      "stateMutability": "view",
      "type": "function"
    },
    {
      "inputs": [],
      "name": "getBalance",
      "outputs": [
        {
          "internalType": "uint256",
          "name": "",
          "type": "uint256"
        }
      ],
      "stateMutability": "view",
      "type": "function"
    },
    {
      "inputs": [],
      "name": "listingPrice",
      "outputs": [
        {
          "internalType": "uint256",
          "name": "",
          "type": "uint256"
        }
      ],
      "stateMutability": "view",
      "type": "function"
    },
    {
      "inputs": [],
      "name": "owner",
      "outputs": [
        {
          "internalType": "address",
          "name": "",
          "type": "address"
        }
      ],
      "stateMutability": "view",
      "type": "function"
    },
    {
      "inputs": [
        {
          "internalType": "uint256",
          "name": "itemId",
          "type": "uint256"
        }
      ],
      "name": "placeBid",
      "outputs": [],
      "stateMutability": "payable",
      "type": "function"
    },
    {
      "inputs": [],
      "name": "renounceOwnership",
      "outputs": [],
      "stateMutability": "nonpayable",
      "type": "function"
    },
    {
      "inputs": [
        {
          "internalType": "address",
          "name": "newOwner",
          "type": "address"
        }
      ],
      "name": "transferOwnership",
      "outputs": [],
      "stateMutability": "nonpayable",
      "type": "function"
    },
    {
      "inputs": [
        {
          "internalType": "uint256",
          "name": "_listingPrice",
          "type": "uint256"
        }
      ],
      "name": "updateListingPrice",
      "outputs": [],
      "stateMutability": "nonpayable",
      "type": "function"
    },
    {
      "inputs": [],
      "name": "withdraw",
      "outputs": [],
      "stateMutability": "nonpayable",
      "type": "function"
    }
  ],
  "bytecode": "0x60806040526658d15e1762800060045534801561001b57600080fd5b50600160005561002a33610038565b61003333610038565b61008a565b600180546001600160a01b038381166001600160a01b0319831681179093556040519116919082907f8be0079c531659141344cd1fd0a4f28419497f9722a3daafe3b4186f6b6457e090600090a35050565b6119ea806100996000396000f3fe6080604052600436106100e85760003560e01c80638da5cb5b1161008a578063be9af53611610059578063be9af5361461022f578063c78f19f914610242578063e0eeb67614610258578063f2fde38b1461027857600080fd5b80638da5cb5b146101b45780639979ef45146101dc578063ae677aa3146101ef578063b9a2de3a1461020f57600080fd5b8063305a67a8116100c6578063305a67a8146101555780633ccfd60b14610177578063715018a61461018c578063796154e8146101a157600080fd5b80630f08efe0146100ed57806312065fe0146101185780631a3a6aae14610135575b600080fd5b3480156100f957600080fd5b50610102610298565b60405161010f9190611799565b60405180910390f35b34801561012457600080fd5b50475b60405190815260200161010f565b34801561014157600080fd5b50610102610150366004611879565b610454565b34801561016157600080fd5b5061017561017036600461189b565b610620565b005b34801561018357600080fd5b506101756107d8565b34801561019857600080fd5b50610175610819565b6101756101af3660046118b4565b61082d565b3480156101c057600080fd5b506001546040516001600160a01b03909116815260200161010f565b6101756101ea36600461189b565b610bb7565b3480156101fb57600080fd5b5061017561020a36600461189b565b610e30565b34801561021b57600080fd5b5061017561022a36600461189b565b610e3d565b61017561023d36600461189b565b611197565b34801561024e57600080fd5b5061012760045481565b34801561026457600080fd5b50610102610273366004611879565b6113fe565b34801561028457600080fd5b50610175610293366004611879565b6115c2565b606060006102a560025490565b905060006102b260035490565b6002546102bf919061191f565b90506000808267ffffffffffffffff8111156102dd576102dd611938565b60405190808252806020026020018201604052801561031657816020015b61030361173d565b8152602001906001900390816102fb5790505b50905060005b8481101561044b57306005600061033484600161194e565b81526020810191909152604001600020600401546001600160a01b03160361043957600061036382600161194e565b6000818152600560208181526040928390208351610160810185528154815260018201546001600160a01b03908116938201939093526002820154948101949094526003810154821660608501526004810154821660808501529182015460a0840152600682015460ff808216151560c08601526101009182900416151560e0850152600783015490840152600882015416610120830152600981015461014083015285519293509185908790811061041e5761041e611961565b602090810291909101015261043460018661194e565b945050505b8061044381611977565b91505061031c565b50949350505050565b6001600160a01b03811660009081526006602090815260408083208054825181850281018501909352808352606094938301828280156104b357602002820191906000526020600020905b81548152602001906001019080831161049f575b505050505090506000815167ffffffffffffffff8111156104d6576104d6611938565b60405190808252806020026020018201604052801561050f57816020015b6104fc61173d565b8152602001906001900390816104f45790505b50905060005b8251811015610618576005600084838151811061053457610534611961565b60209081029190910181015182528181019290925260409081016000208151610160810183528154815260018201546001600160a01b0390811694820194909452600282015492810192909252600381015483166060830152600481015483166080830152600581015460a0830152600681015460ff808216151560c08501526101009182900416151560e0840152600782015490830152600881015490921661012082015260099091015461014082015282518390839081106105fa576105fa611961565b6020026020010181905250808061061090611977565b915050610515565b509392505050565b610628611638565b600081815260056020526040902060038101546001600160a01b031633146106905760405162461bcd60e51b815260206004820152601660248201527513db9b1e481cd95b1b195c8818d85b8818d85b98d95b60521b60448201526064015b60405180910390fd5b600681015460ff16156106d95760405162461bcd60e51b8152602060048201526011602482015270125d195b48185b1c9958591e481cdbdb19607a1b6044820152606401610687565b6006810154610100900460ff16156107465760088101546001600160a01b0316156107465760405162461bcd60e51b815260206004820152601f60248201527f43616e6e6f742063616e63656c2061756374696f6e20776974682062696473006044820152606401610687565b60068101805460ff19166001908117909155810154600382015460028301546040516323b872dd60e01b81526001600160a01b03938416936323b872dd93610798933093919092169190600401611990565b600060405180830381600087803b1580156107b257600080fd5b505af11580156107c6573d6000803e3d6000fd5b50505050506107d56001600055565b50565b6107e0611691565b6001546040516001600160a01b03909116904780156108fc02916000818181858888f193505050501580156107d5573d6000803e3d6000fd5b610821611691565b61082b60006116eb565b565b610835611638565b600083116108855760405162461bcd60e51b815260206004820152601c60248201527f5072696365206d757374206265206174206c65617374203120776569000000006044820152606401610687565b60045434146108e25760405162461bcd60e51b8152602060048201526024808201527f5072696365206d75737420626520657175616c20746f206c697374696e6720706044820152637269636560e01b6064820152608401610687565b6108f0600280546001019055565b60006108fb60025490565b9050600083156109125761090f834261194e565b90505b604051806101600160405280838152602001886001600160a01b03168152602001878152602001336001600160a01b03168152602001306001600160a01b03168152602001868152602001600015158152602001851515815260200182815260200160006001600160a01b031681526020016000815250600560008481526020019081526020016000206000820151816000015560208201518160010160006101000a8154816001600160a01b0302191690836001600160a01b031602179055506040820151816002015560608201518160030160006101000a8154816001600160a01b0302191690836001600160a01b0316021790555060808201518160040160006101000a8154816001600160a01b0302191690836001600160a01b0316021790555060a0820151816005015560c08201518160060160006101000a81548160ff02191690831515021790555060e08201518160060160016101000a81548160ff02191690831515021790555061010082015181600701556101208201518160080160006101000a8154816001600160a01b0302191690836001600160a01b031602179055506101408201518160090155905050866001600160a01b03166323b872dd3330896040518463ffffffff1660e01b8152600401610af893929190611990565b600060405180830381600087803b158015610b1257600080fd5b505af1158015610b26573d6000803e3d6000fd5b505033600081815260066020908152604080832080546001810182559084529282902090920187905581519283523090830152810188905286151560608201528892506001600160a01b038a16915084907f045dfa01dcba2b36aba1d3dc4a874f4b0c5d2fbeb8d2c4b34a7d88c8d8f929d19060800160405180910390a45050610bb06001600055565b5050505050565b610bbf611638565b60008181526005602052604090206006810154610100900460ff16610c1f5760405162461bcd60e51b815260206004820152601660248201527524ba32b69034b9903737ba1034b71030bab1ba34b7b760511b6044820152606401610687565b600681015460ff1615610c6c5760405162461bcd60e51b8152602060048201526015602482015274105d58dd1a5bdb88185b1c9958591e48195b991959605a1b6044820152606401610687565b80600701544210610cb35760405162461bcd60e51b8152602060048201526011602482015270105d58dd1a5bdb881a185cc8195b991959607a1b6044820152606401610687565b80600901543411610d1a5760405162461bcd60e51b815260206004820152602b60248201527f426964206d75737420626520686967686572207468616e2063757272656e742060448201526a1a1a59da195cdd08189a5960aa1b6064820152608401610687565b60038101546001600160a01b03163303610d765760405162461bcd60e51b815260206004820152601d60248201527f53656c6c65722063616e6e6f7420626964206f6e206f776e206974656d0000006044820152606401610687565b60088101546001600160a01b031615610dcb57600881015460098201546040516001600160a01b039092169181156108fc0291906000818181858888f19350505050158015610dc9573d6000803e3d6000fd5b505b6008810180546001600160a01b03191633908117909155346009830181905560405184917f0e54eff26401bf69b81b26f60bd85ef47f5d85275c1d268d84f68d6897431c4791610e1d91815260200190565b60405180910390a3506107d56001600055565b610e38611691565b600455565b610e45611638565b60008181526005602052604090206006810154610100900460ff16610ea55760405162461bcd60e51b815260206004820152601660248201527524ba32b69034b9903737ba1034b71030bab1ba34b7b760511b6044820152606401610687565b600681015460ff1615610ef25760405162461bcd60e51b8152602060048201526015602482015274105d58dd1a5bdb88185b1c9958591e48195b991959605a1b6044820152606401610687565b8060070154421015610f465760405162461bcd60e51b815260206004820152601960248201527f41756374696f6e20686173206e6f7420656e64656420796574000000000000006044820152606401610687565b60038101546001600160a01b0316331480610f6b57506001546001600160a01b031633145b610fc35760405162461bcd60e51b8152602060048201526024808201527f4f6e6c792073656c6c6572206f72206f776e65722063616e20656e64206175636044820152633a34b7b760e11b6064820152608401610687565b60068101805460ff1916600117905560088101546004820180546001600160a01b0319166001600160a01b03909216919091179055611006600380546001019055565b60088101546001600160a01b03161561114b576001810154600882015460028301546040516323b872dd60e01b81526001600160a01b03938416936323b872dd9361105a9330939290911691600401611990565b600060405180830381600087803b15801561107457600080fd5b505af1158015611088573d6000803e3d6000fd5b505050600382015460098301546040516001600160a01b03909216925080156108fc02916000818181858888f193505050501580156110cb573d6000803e3d6000fd5b506008810180546001600160a01b0390811660009081526007602090815260408083208054600181018255908452919092200185905591546009840154925191169184917fd2aa34a4fdbbc6dff6a3e56f46e0f3ae2a31d7785ff3487aa5c95c642acea5019161113e9190815260200190565b60405180910390a361118c565b6001810154600382015460028301546040516323b872dd60e01b81526001600160a01b03938416936323b872dd936107989330939290911691600401611990565b506107d56001600055565b61119f611638565b6000818152600560205260409020600681015460ff16156111f65760405162461bcd60e51b8152602060048201526011602482015270125d195b48185b1c9958591e481cdbdb19607a1b6044820152606401610687565b6006810154610100900460ff16156112455760405162461bcd60e51b815260206004820152601260248201527124ba32b69034b99034b71030bab1ba34b7b760711b6044820152606401610687565b806005015434146112985760405162461bcd60e51b815260206004820152601e60248201527f506c65617365207375626d6974207468652061736b696e6720707269636500006044820152606401610687565b60068101805460ff191660011790556004810180546001600160a01b031916331790556112c9600380546001019055565b600181015460028201546040516323b872dd60e01b81526001600160a01b03909216916323b872dd916113029130913391600401611990565b600060405180830381600087803b15801561131c57600080fd5b505af1158015611330573d6000803e3d6000fd5b50505060038201546040516001600160a01b0390911691503480156108fc02916000818181858888f1935050505015801561136f573d6000803e3d6000fd5b503360008181526007602090815260408083208054600181810183559185529290932090910185905560028401549184015460038501546005860154925193946001600160a01b039283169488947f6a5f9d2b6ff1f375ebe095556dc91e68fce80a6187d7527cce81c3ab02726c9c946113eb94169291611990565b60405180910390a4506107d56001600055565b6001600160a01b038116600090815260076020908152604080832080548251818502810185019093528083526060949383018282801561145d57602002820191906000526020600020905b815481526020019060010190808311611449575b505050505090506000815167ffffffffffffffff81111561148057611480611938565b6040519080825280602002602001820160405280156114b957816020015b6114a661173d565b81526020019060019003908161149e5790505b50905060005b825181101561061857600560008483815181106114de576114de611961565b60209081029190910181015182528181019290925260409081016000208151610160810183528154815260018201546001600160a01b0390811694820194909452600282015492810192909252600381015483166060830152600481015483166080830152600581015460a0830152600681015460ff808216151560c08501526101009182900416151560e0840152600782015490830152600881015490921661012082015260099091015461014082015282518390839081106115a4576115a4611961565b602002602001018190525080806115ba90611977565b9150506114bf565b6115ca611691565b6001600160a01b03811661162f5760405162461bcd60e51b815260206004820152602660248201527f4f776e61626c653a206e6577206f776e657220697320746865207a65726f206160448201526564647265737360d01b6064820152608401610687565b6107d5816116eb565b60026000540361168a5760405162461bcd60e51b815260206004820152601f60248201527f5265656e7472616e637947756172643a207265656e7472616e742063616c6c006044820152606401610687565b6002600055565b6001546001600160a01b0316331461082b5760405162461bcd60e51b815260206004820181905260248201527f4f776e61626c653a2063616c6c6572206973206e6f7420746865206f776e65726044820152606401610687565b600180546001600160a01b038381166001600160a01b0319831681179093556040519116919082907f8be0079c531659141344cd1fd0a4f28419497f9722a3daafe3b4186f6b6457e090600090a35050565b6040805161016081018252600080825260208201819052918101829052606081018290526080810182905260a0810182905260c0810182905260e081018290526101008101829052610120810182905261014081019190915290565b602080825282518282018190526000919060409081850190868401855b8281101561185057815180518552868101516001600160a01b0390811688870152868201518787015260608083015182169087015260808083015182169087015260a0808301519087015260c08083015115159087015260e08083015115159087015261010080830151908701526101208083015190911690860152610140908101519085015261016090930192908501906001016117b6565b5091979650505050505050565b80356001600160a01b038116811461187457600080fd5b919050565b60006020828403121561188b57600080fd5b6118948261185d565b9392505050565b6000602082840312156118ad57600080fd5b5035919050565b600080600080600060a086880312156118cc57600080fd5b6118d58661185d565b94506020860135935060408601359250606086013580151581146118f857600080fd5b949793965091946080013592915050565b634e487b7160e01b600052601160045260246000fd5b8181038181111561193257611932611909565b92915050565b634e487b7160e01b600052604160045260246000fd5b8082018082111561193257611932611909565b634e487b7160e01b600052603260045260246000fd5b60006001820161198957611989611909565b5060010190565b6001600160a01b03938416815291909216602082015260408101919091526060019056fea26469706673582212200f80594727b0d6100725ce82dfddd367386c413a5b1072502725af420649be9e64736f6c63430008130033",
  "linkReferences": {},
  "deployedLinkReferences": {}
}