{
  "_format": "hh-sol-artifact-1",
  "contractName": "SpringTenToken",
  "sourceName": "contracts/SpringTenToken.sol",
  "abi": [
    {
      "inputs": [],
      "stateMutability": "nonpayable",
      "type": "constructor"
    },
    {
      "anonymous": false,
      "inputs": [
        {
          "indexed": true,
          "internalType": "address",
          "name": "owner",
          "type": "address"
        },
        {
          "indexed": true,
          "internalType": "address",
          "name": "spender",
          "type": "address"
        },
        {
          "indexed": false,
          "internalType": "uint256",
          "name": "value",
          "type": "uint256"
        }
      ],
      "name": "Approval",
      "type": "event"
    },
    {
      "anonymous": false,
      "inputs": [
        {
          "indexed": true,
          "internalType": "address",
          "name": "previousOwner",
          "type": "address"
        },
        {
          "indexed": true,
          "internalType": "address",
          "name": "newOwner",
          "type": "address"
        }
      ],
      "name": "OwnershipTransferred",
      "type": "event"
    },
    {
      "anonymous": false,
      "inputs": [
        {
          "indexed": false,
          "internalType": "address",
          "name": "account",
          "type": "address"
        }
      ],
      "name": "Paused",
      "type": "event"
    },
    {
      "anonymous": false,
      "inputs": [
        {
          "indexed": true,
          "internalType": "address",
          "name": "user",
          "type": "address"
        },
        {
          "indexed": false,
          "internalType": "uint256",
          "name": "amount",
          "type": "uint256"
        }
      ],
      "name": "RewardsClaimed",
      "type": "event"
    },
    {
      "anonymous": false,
      "inputs": [
        {
          "indexed": true,
          "internalType": "address",
          "name": "user",
          "type": "address"
        },
        {
          "indexed": false,
          "internalType": "uint256",
          "name": "amount",
          "type": "uint256"
        }
      ],
      "name": "TokensBurned",
      "type": "event"
    },
    {
      "anonymous": false,
      "inputs": [
        {
          "indexed": true,
          "internalType": "address",
          "name": "user",
          "type": "address"
        },
        {
          "indexed": false,
          "internalType": "uint256",
          "name": "amount",
          "type": "uint256"
        },
        {
          "indexed": false,
          "internalType": "uint256",
          "name": "timestamp",
          "type": "uint256"
        }
      ],
      "name": "TokensStaked",
      "type": "event"
    },
    {
      "anonymous": false,
      "inputs": [
        {
          "indexed": true,
          "internalType": "address",
          "name": "user",
          "type": "address"
        },
        {
          "indexed": false,
          "internalType": "uint256",
          "name": "amount",
          "type": "uint256"
        },
        {
          "indexed": false,
          "internalType": "uint256",
          "name": "timestamp",
          "type": "uint256"
        }
      ],
      "name": "TokensUnstaked",
      "type": "event"
    },
    {
      "anonymous": false,
      "inputs": [
        {
          "indexed": true,
          "internalType": "address",
          "name": "from",
          "type": "address"
        },
        {
          "indexed": true,
          "internalType": "address",
          "name": "to",
          "type": "address"
        },
        {
          "indexed": false,
          "internalType": "uint256",
          "name": "value",
          "type": "uint256"
        }
      ],
      "name": "Transfer",
      "type": "event"
    },
    {
      "anonymous": false,
      "inputs": [
        {
          "indexed": false,
          "internalType": "address",
          "name": "account",
          "type": "address"
        }
      ],
      "name": "Unpaused",
      "type": "event"
    },
    {
      "inputs": [],
      "name": "INITIAL_SUPPLY",
      "outputs": [
        {
          "internalType": "uint256",
          "name": "",
          "type": "uint256"
        }
      ],
      "stateMutability": "view",
      "type": "function"
    },
    {
      "inputs": [],
      "name": "MAX_SUPPLY",
      "outputs": [
        {
          "internalType": "uint256",
          "name": "",
          "type": "uint256"
        }
      ],
      "stateMutability": "view",
      "type": "function"
    },
    {
      "inputs": [],
      "name": "REWARD_PRECISION",
      "outputs": [
        {
          "internalType": "uint256",
          "name": "",
          "type": "uint256"
        }
      ],
      "stateMutability": "view",
      "type": "function"
    },
    {
      "inputs": [
        {
          "internalType": "address",
          "name": "owner",
          "type": "address"
        },
        {
          "internalType": "address",
          "name": "spender",
          "type": "address"
        }
      ],
      "name": "allowance",
      "outputs": [
        {
          "internalType": "uint256",
          "name": "",
          "type": "uint256"
        }
      ],
      "stateMutability": "view",
      "type": "function"
    },
    {
      "inputs": [
        {
          "internalType": "address",
          "name": "spender",
          "type": "address"
        },
        {
          "internalType": "uint256",
          "name": "amount",
          "type": "uint256"
        }
      ],
      "name": "approve",
      "outputs": [
        {
          "internalType": "bool",
          "name": "",
          "type": "bool"
        }
      ],
      "stateMutability": "nonpayable",
      "type": "function"
    },
    {
      "inputs": [
        {
          "internalType": "address",
          "name": "account",
          "type": "address"
        }
      ],
      "name": "balanceOf",
      "outputs": [
        {
          "internalType": "uint256",
          "name": "",
          "type": "uint256"
        }
      ],
      "stateMutability": "view",
      "type": "function"
    },
    {
      "inputs": [
        {
          "internalType": "uint256",
          "name": "amount",
          "type": "uint256"
        }
      ],
      "name": "burn",
      "outputs": [],
      "stateMutability": "nonpayable",
      "type": "function"
    },
    {
      "inputs": [
        {
          "internalType": "address",
          "name": "account",
          "type": "address"
        },
        {
          "internalType": "uint256",
          "name": "amount",
          "type": "uint256"
        }
      ],
      "name": "burnFrom",
      "outputs": [],
      "stateMutability": "nonpayable",
      "type": "function"
    },
    {
      "inputs": [
        {
          "internalType": "address",
          "name": "user",
          "type": "address"
        }
      ],
      "name": "calculatePendingRewards",
      "outputs": [
        {
          "internalType": "uint256",
          "name": "",
          "type": "uint256"
        }
      ],
      "stateMutability": "view",
      "type": "function"
    },
    {
      "inputs": [],
      "name": "claimRewards",
      "outputs": [],
      "stateMutability": "nonpayable",
      "type": "function"
    },
    {
      "inputs": [],
      "name": "decimals",
      "outputs": [
        {
          "internalType": "uint8",
          "name": "",
          "type": "uint8"
        }
      ],
      "stateMutability": "view",
      "type": "function"
    },
    {
      "inputs": [
        {
          "internalType": "address",
          "name": "spender",
          "type": "address"
        },
        {
          "internalType": "uint256",
          "name": "subtractedValue",
          "type": "uint256"
        }
      ],
      "name": "decreaseAllowance",
      "outputs": [
        {
          "internalType": "bool",
          "name": "",
          "type": "bool"
        }
      ],
      "stateMutability": "nonpayable",
      "type": "function"
    },
    {
      "inputs": [],
      "name": "emergencyWithdraw",
      "outputs": [],
      "stateMutability": "nonpayable",
      "type": "function"
    },
    {
      "inputs": [
        {
          "internalType": "address",
          "name": "user",
          "type": "address"
        }
      ],
      "name": "getStakingInfo",
      "outputs": [
        {
          "internalType": "uint256",
          "name": "stakedAmount",
          "type": "uint256"
        },
        {
          "internalType": "uint256",
          "name": "pendingRewards",
          "type": "uint256"
        },
        {
          "internalType": "uint256",
          "name": "stakingStartTime",
          "type": "uint256"
        },
        {
          "internalType": "bool",
          "name": "isActive",
          "type": "bool"
        }
      ],
      "stateMutability": "view",
      "type": "function"
    },
    {
      "inputs": [
        {
          "internalType": "address",
          "name": "spender",
          "type": "address"
        },
        {
          "internalType": "uint256",
          "name": "addedValue",
          "type": "uint256"
        }
      ],
      "name": "increaseAllowance",
      "outputs": [
        {
          "internalType": "bool",
          "name": "",
          "type": "bool"
        }
      ],
      "stateMutability": "nonpayable",
      "type": "function"
    },
    {
      "inputs": [
        {
          "internalType": "address",
          "name": "to",
          "type": "address"
        },
        {
          "internalType": "uint256",
          "name": "amount",
          "type": "uint256"
        }
      ],
      "name": "mint",
      "outputs": [],
      "stateMutability": "nonpayable",
      "type": "function"
    },
    {
      "inputs": [],
      "name": "name",
      "outputs": [
        {
          "internalType": "string",
          "name": "",
          "type": "string"
        }
      ],
      "stateMutability": "view",
      "type": "function"
    },
    {
      "inputs": [],
      "name": "owner",
      "outputs": [
        {
          "internalType": "address",
          "name": "",
          "type": "address"
        }
      ],
      "stateMutability": "view",
      "type": "function"
    },
    {
      "inputs": [],
      "name": "pause",
      "outputs": [],
      "stateMutability": "nonpayable",
      "type": "function"
    },
    {
      "inputs": [],
      "name": "paused",
      "outputs": [
        {
          "internalType": "bool",
          "name": "",
          "type": "bool"
        }
      ],
      "stateMutability": "view",
      "type": "function"
    },
    {
      "inputs": [],
      "name": "renounceOwnership",
      "outputs": [],
      "stateMutability": "nonpayable",
      "type": "function"
    },
    {
      "inputs": [
        {
          "internalType": "uint256",
          "name": "amount",
          "type": "uint256"
        }
      ],
      "name": "stake",
      "outputs": [],
      "stateMutability": "nonpayable",
      "type": "function"
    },
    {
      "inputs": [
        {
          "internalType": "address",
          "name": "",
          "type": "address"
        }
      ],
      "name": "stakes",
      "outputs": [
        {
          "internalType": "uint256",
          "name": "amount",
          "type": "uint256"
        },
        {
          "internalType": "uint256",
          "name": "timestamp",
          "type": "uint256"
        },
        {
          "internalType": "uint256",
          "name": "lastClaimed",
          "type": "uint256"
        },
        {
          "internalType": "bool",
          "name": "active",
          "type": "bool"
        }
      ],
      "stateMutability": "view",
      "type": "function"
    },
    {
      "inputs": [],
      "name": "stakingRewardRate",
      "outputs": [
        {
          "internalType": "uint256",
          "name": "",
          "type": "uint256"
        }
      ],
      "stateMutability": "view",
      "type": "function"
    },
    {
      "inputs": [
        {
          "internalType": "address",
          "name": "",
          "type": "address"
        }
      ],
      "name": "stakingRewards",
      "outputs": [
        {
          "internalType": "uint256",
          "name": "",
          "type": "uint256"
        }
      ],
      "stateMutability": "view",
      "type": "function"
    },
    {
      "inputs": [],
      "name": "symbol",
      "outputs": [
        {
          "internalType": "string",
          "name": "",
          "type": "string"
        }
      ],
      "stateMutability": "view",
      "type": "function"
    },
    {
      "inputs": [],
      "name": "totalSupply",
      "outputs": [
        {
          "internalType": "uint256",
          "name": "",
          "type": "uint256"
        }
      ],
      "stateMutability": "view",
      "type": "function"
    },
    {
      "inputs": [
        {
          "internalType": "address",
          "name": "to",
          "type": "address"
        },
        {
          "internalType": "uint256",
          "name": "amount",
          "type": "uint256"
        }
      ],
      "name": "transfer",
      "outputs": [
        {
          "internalType": "bool",
          "name": "",
          "type": "bool"
        }
      ],
      "stateMutability": "nonpayable",
      "type": "function"
    },
    {
      "inputs": [
        {
          "internalType": "address",
          "name": "from",
          "type": "address"
        },
        {
          "internalType": "address",
          "name": "to",
          "type": "address"
        },
        {
          "internalType": "uint256",
          "name": "amount",
          "type": "uint256"
        }
      ],
      "name": "transferFrom",
      "outputs": [
        {
          "internalType": "bool",
          "name": "",
          "type": "bool"
        }
      ],
      "stateMutability": "nonpayable",
      "type": "function"
    },
    {
      "inputs": [
        {
          "internalType": "address",
          "name": "newOwner",
          "type": "address"
        }
      ],
      "name": "transferOwnership",
      "outputs": [],
      "stateMutability": "nonpayable",
      "type": "function"
    },
    {
      "inputs": [],
      "name": "unpause",
      "outputs": [],
      "stateMutability": "nonpayable",
      "type": "function"
    },
    {
      "inputs": [
        {
          "internalType": "uint256",
          "name": "amount",
          "type": "uint256"
        }
      ],
      "name": "unstake",
      "outputs": [],
      "stateMutability": "nonpayable",
      "type": "function"
    },
    {
      "inputs": [
        {
          "internalType": "uint256",
          "name": "newRate",
          "type": "uint256"
        }
      ],
      "name": "updateStakingRate",
      "outputs": [],
      "stateMutability": "nonpayable",
      "type": "function"
    }
  ],
  "bytecode": "0x6080604052600a6007553480156200001657600080fd5b506040518060400160405280600f81526020016e29b83934b733aa32b7102a37b5b2b760891b81525060405180604001604052806006815260200165535052494e4760d01b81525081600390816200006f919062000310565b5060046200007e828262000310565b50506005805460ff19169055506200009633620000c3565b6001600655620000b2336a52b7d2dcc80cd2e40000006200011d565b620000bd33620000c3565b62000404565b600580546001600160a01b03838116610100818102610100600160a81b031985161790945560405193909204169182907f8be0079c531659141344cd1fd0a4f28419497f9722a3daafe3b4186f6b6457e090600090a35050565b6001600160a01b038216620001795760405162461bcd60e51b815260206004820152601f60248201527f45524332303a206d696e7420746f20746865207a65726f20616464726573730060448201526064015b60405180910390fd5b6200018760008383620001f2565b80600260008282546200019b9190620003dc565b90915550506001600160a01b038216600081815260208181526040808320805486019055518481527fddf252ad1be2c89b69c2b068fc378daa952ba7f163c4a11628f55a4df523b3ef910160405180910390a35050565b620001ff83838362000204565b505050565b60055460ff1615620001ff5760405162461bcd60e51b815260206004820152602a60248201527f45524332305061757361626c653a20746f6b656e207472616e736665722077686044820152691a5b19481c185d5cd95960b21b606482015260840162000170565b634e487b7160e01b600052604160045260246000fd5b600181811c908216806200029757607f821691505b602082108103620002b857634e487b7160e01b600052602260045260246000fd5b50919050565b601f821115620001ff57600081815260208120601f850160051c81016020861015620002e75750805b601f850160051c820191505b818110156200030857828155600101620002f3565b505050505050565b81516001600160401b038111156200032c576200032c6200026c565b62000344816200033d845462000282565b84620002be565b602080601f8311600181146200037c5760008415620003635750858301515b600019600386901b1c1916600185901b17855562000308565b600085815260208120601f198616915b82811015620003ad578886015182559484019460019091019084016200038c565b5085821015620003cc5787850151600019600388901b60f8161c191681555b5050505050600190811b01905550565b80820180821115620003fe57634e487b7160e01b600052601160045260246000fd5b92915050565b61185b80620004146000396000f3fe608060405234801561001057600080fd5b50600436106101fb5760003560e01c8063499d7f961161011a5780638da5cb5b116100ad578063a9059cbb1161007c578063a9059cbb1461045c578063aa4704f31461046f578063db2e21bc14610482578063dd62ed3e1461048a578063f2fde38b1461049d57600080fd5b80638da5cb5b1461040557806395d89b411461042e578063a457c2d714610436578063a694fc3a1461044957600080fd5b806370a08231116100e957806370a08231146103b9578063715018a6146103e257806379cc6790146103ea5780638456cb59146103fd57600080fd5b8063499d7f96146103725780634f3fc2df146103925780635c975abb1461039b57806367becdeb146103a657600080fd5b8063313ce567116101925780633d6aa5e1116101615780633d6aa5e11461033b5780633f4ba83a1461034457806340c10f191461034c57806342966c681461035f57600080fd5b8063313ce567146102fe57806332cb6b0c1461030d578063372500ab14610320578063395093511461032857600080fd5b806318160ddd116101ce57806318160ddd146102bc57806323b872dd146102c45780632e17de78146102d75780632ff2e9dc146102ec57600080fd5b806306fdde0314610200578063095ea7b31461021e578063097aad101461024157806316934fc414610262575b600080fd5b6102086104b0565b6040516102159190611638565b60405180910390f35b61023161022c3660046116a2565b610542565b6040519015158152602001610215565b61025461024f3660046116cc565b61055c565b604051908152602001610215565b61029a6102703660046116cc565b60086020526000908152604090208054600182015460028301546003909301549192909160ff1684565b6040805194855260208501939093529183015215156060820152608001610215565b600254610254565b6102316102d23660046116ee565b610618565b6102ea6102e536600461172a565b61063c565b005b6102546a52b7d2dcc80cd2e400000081565b60405160128152602001610215565b6102546b033b2e3c9fd0803ce800000081565b6102ea6107fc565b6102316103363660046116a2565b61092d565b61025461271081565b6102ea61094f565b6102ea61035a3660046116a2565b61095f565b6102ea61036d36600461172a565b6109dd565b6102546103803660046116cc565b60096020526000908152604090205481565b61025460075481565b60055460ff16610231565b6102ea6103b436600461172a565b610a1e565b6102546103c73660046116cc565b6001600160a01b031660009081526020819052604090205490565b6102ea610a76565b6102ea6103f83660046116a2565b610a88565b6102ea610a9d565b60055461010090046001600160a01b03166040516001600160a01b039091168152602001610215565b610208610aad565b6102316104443660046116a2565b610abc565b6102ea61045736600461172a565b610b37565b61023161046a3660046116a2565b610cd2565b61029a61047d3660046116cc565b610ce0565b6102ea610d57565b610254610498366004611743565b610d97565b6102ea6104ab3660046116cc565b610dc2565b6060600380546104bf90611776565b80601f01602080910402602001604051908101604052809291908181526020018280546104eb90611776565b80156105385780601f1061050d57610100808354040283529160200191610538565b820191906000526020600020905b81548152906001019060200180831161051b57829003601f168201915b5050505050905090565b600033610550818585610e38565b60019150505b92915050565b6001600160a01b03811660009081526008602052604081206003015460ff1661058757506000919050565b6001600160a01b0382166000908152600860205260408120600201546105ad90426117c6565b6007546001600160a01b038516600090815260086020526040812054929350916064916105d9916117d9565b6105e391906117f0565b905060006105f361016d836117f0565b9050620151808061060485846117d9565b61060e91906117f0565b9695505050505050565b600033610626858285610f5d565b610631858585610fd7565b506001949350505050565b610644611186565b3360009081526008602052604090206003015460ff1661069d5760405162461bcd60e51b815260206004820152600f60248201526e4e6f20616374697665207374616b6560881b60448201526064015b60405180910390fd5b600081116106ed5760405162461bcd60e51b815260206004820152601d60248201527f416d6f756e74206d7573742062652067726561746572207468616e20300000006044820152606401610694565b3360009081526008602052604090205481111561074c5760405162461bcd60e51b815260206004820152601a60248201527f496e73756666696369656e74207374616b656420616d6f756e740000000000006044820152606401610694565b6107546107fc565b33600090815260086020526040812080548392906107739084906117c6565b90915550503360009081526008602052604081205490036107a957336000908152600860205260409020600301805460ff191690555b6107b4303383610fd7565b6040805182815242602082015233917f6f2d3e000c89d37446b7c0374c0125068ff316d1e3ee302336478a8cd03c233691015b60405180910390a26107f96001600655565b50565b610804611186565b3360009081526008602052604090206003015460ff166108585760405162461bcd60e51b815260206004820152600f60248201526e4e6f20616374697665207374616b6560881b6044820152606401610694565b60006108633361055c565b9050600081116108ab5760405162461bcd60e51b81526020600482015260136024820152724e6f207265776172647320746f20636c61696d60681b6044820152606401610694565b336000908152600860209081526040808320426002909101556009909152812080548392906108db908490611812565b909155506108eb905033826111df565b60405181815233907ffc30cddea38e2bf4d6ea7d3f9ed3b6ad7f176419f4963bd81318067a4aee73fe9060200160405180910390a25061092b6001600655565b565b6000336105508185856109408383610d97565b61094a9190611812565b610e38565b6109576112aa565b61092b61130a565b6109676112aa565b6b033b2e3c9fd0803ce80000008161097e60025490565b6109889190611812565b11156109cf5760405162461bcd60e51b815260206004820152601660248201527545786365656473206d6178696d756d20737570706c7960501b6044820152606401610694565b6109d982826111df565b5050565b6109e68161135c565b60405181815233907ffd38818f5291bf0bb3a2a48aadc06ba8757865d1dabd804585338aab3009dcb69060200160405180910390a250565b610a266112aa565b6103e8811115610a715760405162461bcd60e51b8152602060048201526016602482015275526174652063616e6e6f74206578636565642031302560501b6044820152606401610694565b600755565b610a7e6112aa565b61092b6000611366565b610a93823383610f5d565b6109d982826113c0565b610aa56112aa565b61092b6114fb565b6060600480546104bf90611776565b60003381610aca8286610d97565b905083811015610b2a5760405162461bcd60e51b815260206004820152602560248201527f45524332303a2064656372656173656420616c6c6f77616e63652062656c6f77604482015264207a65726f60d81b6064820152608401610694565b6106318286868403610e38565b610b3f611186565b610b47611538565b60008111610b975760405162461bcd60e51b815260206004820152601d60248201527f416d6f756e74206d7573742062652067726561746572207468616e20300000006044820152606401610694565b33600090815260208190526040902054811115610bed5760405162461bcd60e51b8152602060048201526014602482015273496e73756666696369656e742062616c616e636560601b6044820152606401610694565b3360009081526008602052604090206003015460ff1615610c1057610c106107fc565b610c1b333083610fd7565b60408051608081018252336000908152600860205291909120548190610c42908490611812565b81524260208083018290526040808401839052600160609485018190523360008181526008855283902087518155878501519281019290925586830151600283015595909401516003909401805460ff1916941515949094179093558251858152908101919091527fdd2a19c3bdd089cbe77c04f5655f83de0504d6140d12c8667646f55d0557c4dc91016107e7565b600033610550818585610fd7565b6001600160a01b0381166000908152600860209081526040808320815160808101835281548082526001830154948201949094526002820154928101929092526003015460ff1615156060820152829182918291610d3d8761055c565b826020015183606001519450945094509450509193509193565b610d5f6112aa565b3060009081526020819052604090205480156107f9576107f930610d916005546001600160a01b036101009091041690565b83610fd7565b6001600160a01b03918216600090815260016020908152604080832093909416825291909152205490565b610dca6112aa565b6001600160a01b038116610e2f5760405162461bcd60e51b815260206004820152602660248201527f4f776e61626c653a206e6577206f776e657220697320746865207a65726f206160448201526564647265737360d01b6064820152608401610694565b6107f981611366565b6001600160a01b038316610e9a5760405162461bcd60e51b8152602060048201526024808201527f45524332303a20617070726f76652066726f6d20746865207a65726f206164646044820152637265737360e01b6064820152608401610694565b6001600160a01b038216610efb5760405162461bcd60e51b815260206004820152602260248201527f45524332303a20617070726f766520746f20746865207a65726f206164647265604482015261737360f01b6064820152608401610694565b6001600160a01b0383811660008181526001602090815260408083209487168084529482529182902085905590518481527f8c5be1e5ebec7d5bd14f71427d1e84f3dd0314c0f7b2291e5b200ac8c7c3b92591015b60405180910390a3505050565b6000610f698484610d97565b90506000198114610fd15781811015610fc45760405162461bcd60e51b815260206004820152601d60248201527f45524332303a20696e73756666696369656e7420616c6c6f77616e63650000006044820152606401610694565b610fd18484848403610e38565b50505050565b6001600160a01b03831661103b5760405162461bcd60e51b815260206004820152602560248201527f45524332303a207472616e736665722066726f6d20746865207a65726f206164604482015264647265737360d81b6064820152608401610694565b6001600160a01b03821661109d5760405162461bcd60e51b815260206004820152602360248201527f45524332303a207472616e7366657220746f20746865207a65726f206164647260448201526265737360e81b6064820152608401610694565b6110a883838361157e565b6001600160a01b038316600090815260208190526040902054818110156111205760405162461bcd60e51b815260206004820152602660248201527f45524332303a207472616e7366657220616d6f756e7420657863656564732062604482015265616c616e636560d01b6064820152608401610694565b6001600160a01b03848116600081815260208181526040808320878703905593871680835291849020805487019055925185815290927fddf252ad1be2c89b69c2b068fc378daa952ba7f163c4a11628f55a4df523b3ef910160405180910390a3610fd1565b6002600654036111d85760405162461bcd60e51b815260206004820152601f60248201527f5265656e7472616e637947756172643a207265656e7472616e742063616c6c006044820152606401610694565b6002600655565b6001600160a01b0382166112355760405162461bcd60e51b815260206004820152601f60248201527f45524332303a206d696e7420746f20746865207a65726f2061646472657373006044820152606401610694565b6112416000838361157e565b80600260008282546112539190611812565b90915550506001600160a01b038216600081815260208181526040808320805486019055518481527fddf252ad1be2c89b69c2b068fc378daa952ba7f163c4a11628f55a4df523b3ef910160405180910390a35050565b6005546001600160a01b0361010090910416331461092b5760405162461bcd60e51b815260206004820181905260248201527f4f776e61626c653a2063616c6c6572206973206e6f7420746865206f776e65726044820152606401610694565b611312611589565b6005805460ff191690557f5db9ee0a495bf2e6ff9c91a7834c1ba4fdd244a5e8aa4e537bd38aeae4b073aa335b6040516001600160a01b03909116815260200160405180910390a1565b6107f933826113c0565b600580546001600160a01b03838116610100818102610100600160a81b031985161790945560405193909204169182907f8be0079c531659141344cd1fd0a4f28419497f9722a3daafe3b4186f6b6457e090600090a35050565b6001600160a01b0382166114205760405162461bcd60e51b815260206004820152602160248201527f45524332303a206275726e2066726f6d20746865207a65726f206164647265736044820152607360f81b6064820152608401610694565b61142c8260008361157e565b6001600160a01b038216600090815260208190526040902054818110156114a05760405162461bcd60e51b815260206004820152602260248201527f45524332303a206275726e20616d6f756e7420657863656564732062616c616e604482015261636560f01b6064820152608401610694565b6001600160a01b0383166000818152602081815260408083208686039055600280548790039055518581529192917fddf252ad1be2c89b69c2b068fc378daa952ba7f163c4a11628f55a4df523b3ef9101610f50565b505050565b611503611538565b6005805460ff191660011790557f62e78cea01bee320cd4e420270b5ea74000d11b0c9f74754ebdbfc544b05a25861133f3390565b60055460ff161561092b5760405162461bcd60e51b815260206004820152601060248201526f14185d5cd8589b194e881c185d5cd95960821b6044820152606401610694565b6114f68383836115d2565b60055460ff1661092b5760405162461bcd60e51b815260206004820152601460248201527314185d5cd8589b194e881b9bdd081c185d5cd95960621b6044820152606401610694565b60055460ff16156114f65760405162461bcd60e51b815260206004820152602a60248201527f45524332305061757361626c653a20746f6b656e207472616e736665722077686044820152691a5b19481c185d5cd95960b21b6064820152608401610694565b600060208083528351808285015260005b8181101561166557858101830151858201604001528201611649565b506000604082860101526040601f19601f8301168501019250505092915050565b80356001600160a01b038116811461169d57600080fd5b919050565b600080604083850312156116b557600080fd5b6116be83611686565b946020939093013593505050565b6000602082840312156116de57600080fd5b6116e782611686565b9392505050565b60008060006060848603121561170357600080fd5b61170c84611686565b925061171a60208501611686565b9150604084013590509250925092565b60006020828403121561173c57600080fd5b5035919050565b6000806040838503121561175657600080fd5b61175f83611686565b915061176d60208401611686565b90509250929050565b600181811c9082168061178a57607f821691505b6020821081036117aa57634e487b7160e01b600052602260045260246000fd5b50919050565b634e487b7160e01b600052601160045260246000fd5b81810381811115610556576105566117b0565b8082028115828204841417610556576105566117b0565b60008261180d57634e487b7160e01b600052601260045260246000fd5b500490565b80820180821115610556576105566117b056fea264697066735822122051fc004bebf759bab4852da7c6eeac4cb4f814298dbebb04da1a0316d214aa1c64736f6c63430008130033",
  "linkReferences": {},
  "deployedLinkReferences": {}
}