{
  "_format": "hh-sol-artifact-1",
  "contractName": "SpringTenNFT",
  "sourceName": "contracts/SpringTenNFT.sol",
  "abi": [
    {
      "inputs": [
        {
          "internalType": "string",
          "name": "_name",
          "type": "string"
        },
        {
          "internalType": "string",
          "name": "_symbol",
          "type": "string"
        },
        {
          "internalType": "uint256",
          "name": "_maxSupply",
          "type": "uint256"
        },
        {
          "internalType": "uint256",
          "name": "_mintPrice",
          "type": "uint256"
        }
      ],
      "stateMutability": "nonpayable",
      "type": "constructor"
    },
    {
      "anonymous": false,
      "inputs": [
        {
          "indexed": true,
          "internalType": "address",
          "name": "owner",
          "type": "address"
        },
        {
          "indexed": true,
          "internalType": "address",
          "name": "approved",
          "type": "address"
        },
        {
          "indexed": true,
          "internalType": "uint256",
          "name": "tokenId",
          "type": "uint256"
        }
      ],
      "name": "Approval",
      "type": "event"
    },
    {
      "anonymous": false,
      "inputs": [
        {
          "indexed": true,
          "internalType": "address",
          "name": "owner",
          "type": "address"
        },
        {
          "indexed": true,
          "internalType": "address",
          "name": "operator",
          "type": "address"
        },
        {
          "indexed": false,
          "internalType": "bool",
          "name": "approved",
          "type": "bool"
        }
      ],
      "name": "ApprovalForAll",
      "type": "event"
    },
    {
      "anonymous": false,
      "inputs": [
        {
          "indexed": false,
          "internalType": "uint256",
          "name": "_fromTokenId",
          "type": "uint256"
        },
        {
          "indexed": false,
          "internalType": "uint256",
          "name": "_toTokenId",
          "type": "uint256"
        }
      ],
      "name": "BatchMetadataUpdate",
      "type": "event"
    },
    {
      "anonymous": false,
      "inputs": [
        {
          "indexed": true,
          "internalType": "address",
          "name": "to",
          "type": "address"
        },
        {
          "indexed": false,
          "internalType": "uint256[]",
          "name": "tokenIds",
          "type": "uint256[]"
        }
      ],
      "name": "BatchMinted",
      "type": "event"
    },
    {
      "anonymous": false,
      "inputs": [
        {
          "indexed": false,
          "internalType": "uint256",
          "name": "_tokenId",
          "type": "uint256"
        }
      ],
      "name": "MetadataUpdate",
      "type": "event"
    },
    {
      "anonymous": false,
      "inputs": [
        {
          "indexed": false,
          "internalType": "bool",
          "name": "active",
          "type": "bool"
        }
      ],
      "name": "MintingToggled",
      "type": "event"
    },
    {
      "anonymous": false,
      "inputs": [
        {
          "indexed": true,
          "internalType": "address",
          "name": "to",
          "type": "address"
        },
        {
          "indexed": true,
          "internalType": "uint256",
          "name": "tokenId",
          "type": "uint256"
        },
        {
          "indexed": false,
          "internalType": "string",
          "name": "tokenURI",
          "type": "string"
        }
      ],
      "name": "NFTMinted",
      "type": "event"
    },
    {
      "anonymous": false,
      "inputs": [
        {
          "indexed": true,
          "internalType": "address",
          "name": "previousOwner",
          "type": "address"
        },
        {
          "indexed": true,
          "internalType": "address",
          "name": "newOwner",
          "type": "address"
        }
      ],
      "name": "OwnershipTransferred",
      "type": "event"
    },
    {
      "anonymous": false,
      "inputs": [
        {
          "indexed": false,
          "internalType": "uint256",
          "name": "newPrice",
          "type": "uint256"
        }
      ],
      "name": "PriceUpdated",
      "type": "event"
    },
    {
      "anonymous": false,
      "inputs": [
        {
          "indexed": true,
          "internalType": "address",
          "name": "from",
          "type": "address"
        },
        {
          "indexed": true,
          "internalType": "address",
          "name": "to",
          "type": "address"
        },
        {
          "indexed": true,
          "internalType": "uint256",
          "name": "tokenId",
          "type": "uint256"
        }
      ],
      "name": "Transfer",
      "type": "event"
    },
    {
      "inputs": [
        {
          "internalType": "address",
          "name": "to",
          "type": "address"
        },
        {
          "internalType": "uint256",
          "name": "tokenId",
          "type": "uint256"
        }
      ],
      "name": "approve",
      "outputs": [],
      "stateMutability": "nonpayable",
      "type": "function"
    },
    {
      "inputs": [
        {
          "internalType": "address",
          "name": "owner",
          "type": "address"
        }
      ],
      "name": "balanceOf",
      "outputs": [
        {
          "internalType": "uint256",
          "name": "",
          "type": "uint256"
        }
      ],
      "stateMutability": "view",
      "type": "function"
    },
    {
      "inputs": [
        {
          "internalType": "address",
          "name": "to",
          "type": "address"
        },
        {
          "internalType": "string[]",
          "name": "tokenURIs",
          "type": "string[]"
        }
      ],
      "name": "batchMint",
      "outputs": [
        {
          "internalType": "uint256[]",
          "name": "",
          "type": "uint256[]"
        }
      ],
      "stateMutability": "payable",
      "type": "function"
    },
    {
      "inputs": [],
      "name": "collectionName",
      "outputs": [
        {
          "internalType": "string",
          "name": "",
          "type": "string"
        }
      ],
      "stateMutability": "view",
      "type": "function"
    },
    {
      "inputs": [],
      "name": "collectionSymbol",
      "outputs": [
        {
          "internalType": "string",
          "name": "",
          "type": "string"
        }
      ],
      "stateMutability": "view",
      "type": "function"
    },
    {
      "inputs": [
        {
          "internalType": "uint256",
          "name": "tokenId",
          "type": "uint256"
        }
      ],
      "name": "getApproved",
      "outputs": [
        {
          "internalType": "address",
          "name": "",
          "type": "address"
        }
      ],
      "stateMutability": "view",
      "type": "function"
    },
    {
      "inputs": [],
      "name": "getContractInfo",
      "outputs": [
        {
          "internalType": "string",
          "name": "name",
          "type": "string"
        },
        {
          "internalType": "string",
          "name": "symbol",
          "type": "string"
        },
        {
          "internalType": "uint256",
          "name": "totalSupplyCount",
          "type": "uint256"
        },
        {
          "internalType": "uint256",
          "name": "maxSupplyCount",
          "type": "uint256"
        },
        {
          "internalType": "uint256",
          "name": "price",
          "type": "uint256"
        },
        {
          "internalType": "bool",
          "name": "active",
          "type": "bool"
        }
      ],
      "stateMutability": "view",
      "type": "function"
    },
    {
      "inputs": [
        {
          "internalType": "uint256",
          "name": "tokenId",
          "type": "uint256"
        }
      ],
      "name": "getTokenMetadata",
      "outputs": [
        {
          "internalType": "string",
          "name": "",
          "type": "string"
        }
      ],
      "stateMutability": "view",
      "type": "function"
    },
    {
      "inputs": [
        {
          "internalType": "address",
          "name": "owner",
          "type": "address"
        }
      ],
      "name": "getTokensByOwner",
      "outputs": [
        {
          "internalType": "uint256[]",
          "name": "",
          "type": "uint256[]"
        }
      ],
      "stateMutability": "view",
      "type": "function"
    },
    {
      "inputs": [
        {
          "internalType": "address",
          "name": "owner",
          "type": "address"
        },
        {
          "internalType": "address",
          "name": "operator",
          "type": "address"
        }
      ],
      "name": "isApprovedForAll",
      "outputs": [
        {
          "internalType": "bool",
          "name": "",
          "type": "bool"
        }
      ],
      "stateMutability": "view",
      "type": "function"
    },
    {
      "inputs": [],
      "name": "maxSupply",
      "outputs": [
        {
          "internalType": "uint256",
          "name": "",
          "type": "uint256"
        }
      ],
      "stateMutability": "view",
      "type": "function"
    },
    {
      "inputs": [
        {
          "internalType": "address",
          "name": "to",
          "type": "address"
        },
        {
          "internalType": "string",
          "name": "tokenURI",
          "type": "string"
        }
      ],
      "name": "mintNFT",
      "outputs": [
        {
          "internalType": "uint256",
          "name": "",
          "type": "uint256"
        }
      ],
      "stateMutability": "payable",
      "type": "function"
    },
    {
      "inputs": [],
      "name": "mintPrice",
      "outputs": [
        {
          "internalType": "uint256",
          "name": "",
          "type": "uint256"
        }
      ],
      "stateMutability": "view",
      "type": "function"
    },
    {
      "inputs": [],
      "name": "mintingActive",
      "outputs": [
        {
          "internalType": "bool",
          "name": "",
          "type": "bool"
        }
      ],
      "stateMutability": "view",
      "type": "function"
    },
    {
      "inputs": [],
      "name": "name",
      "outputs": [
        {
          "internalType": "string",
          "name": "",
          "type": "string"
        }
      ],
      "stateMutability": "view",
      "type": "function"
    },
    {
      "inputs": [],
      "name": "owner",
      "outputs": [
        {
          "internalType": "address",
          "name": "",
          "type": "address"
        }
      ],
      "stateMutability": "view",
      "type": "function"
    },
    {
      "inputs": [
        {
          "internalType": "address",
          "name": "to",
          "type": "address"
        },
        {
          "internalType": "string",
          "name": "tokenURI",
          "type": "string"
        }
      ],
      "name": "ownerMint",
      "outputs": [
        {
          "internalType": "uint256",
          "name": "",
          "type": "uint256"
        }
      ],
      "stateMutability": "nonpayable",
      "type": "function"
    },
    {
      "inputs": [
        {
          "internalType": "uint256",
          "name": "tokenId",
          "type": "uint256"
        }
      ],
      "name": "ownerOf",
      "outputs": [
        {
          "internalType": "address",
          "name": "",
          "type": "address"
        }
      ],
      "stateMutability": "view",
      "type": "function"
    },
    {
      "inputs": [],
      "name": "renounceOwnership",
      "outputs": [],
      "stateMutability": "nonpayable",
      "type": "function"
    },
    {
      "inputs": [
        {
          "internalType": "address",
          "name": "from",
          "type": "address"
        },
        {
          "internalType": "address",
          "name": "to",
          "type": "address"
        },
        {
          "internalType": "uint256",
          "name": "tokenId",
          "type": "uint256"
        }
      ],
      "name": "safeTransferFrom",
      "outputs": [],
      "stateMutability": "nonpayable",
      "type": "function"
    },
    {
      "inputs": [
        {
          "internalType": "address",
          "name": "from",
          "type": "address"
        },
        {
          "internalType": "address",
          "name": "to",
          "type": "address"
        },
        {
          "internalType": "uint256",
          "name": "tokenId",
          "type": "uint256"
        },
        {
          "internalType": "bytes",
          "name": "data",
          "type": "bytes"
        }
      ],
      "name": "safeTransferFrom",
      "outputs": [],
      "stateMutability": "nonpayable",
      "type": "function"
    },
    {
      "inputs": [
        {
          "internalType": "address",
          "name": "operator",
          "type": "address"
        },
        {
          "internalType": "bool",
          "name": "approved",
          "type": "bool"
        }
      ],
      "name": "setApprovalForAll",
      "outputs": [],
      "stateMutability": "nonpayable",
      "type": "function"
    },
    {
      "inputs": [
        {
          "internalType": "string",
          "name": "baseURI",
          "type": "string"
        }
      ],
      "name": "setBaseURI",
      "outputs": [],
      "stateMutability": "nonpayable",
      "type": "function"
    },
    {
      "inputs": [
        {
          "internalType": "bytes4",
          "name": "interfaceId",
          "type": "bytes4"
        }
      ],
      "name": "supportsInterface",
      "outputs": [
        {
          "internalType": "bool",
          "name": "",
          "type": "bool"
        }
      ],
      "stateMutability": "view",
      "type": "function"
    },
    {
      "inputs": [],
      "name": "symbol",
      "outputs": [
        {
          "internalType": "string",
          "name": "",
          "type": "string"
        }
      ],
      "stateMutability": "view",
      "type": "function"
    },
    {
      "inputs": [],
      "name": "toggleMinting",
      "outputs": [],
      "stateMutability": "nonpayable",
      "type": "function"
    },
    {
      "inputs": [
        {
          "internalType": "uint256",
          "name": "index",
          "type": "uint256"
        }
      ],
      "name": "tokenByIndex",
      "outputs": [
        {
          "internalType": "uint256",
          "name": "",
          "type": "uint256"
        }
      ],
      "stateMutability": "view",
      "type": "function"
    },
    {
      "inputs": [
        {
          "internalType": "address",
          "name": "owner",
          "type": "address"
        },
        {
          "internalType": "uint256",
          "name": "index",
          "type": "uint256"
        }
      ],
      "name": "tokenOfOwnerByIndex",
      "outputs": [
        {
          "internalType": "uint256",
          "name": "",
          "type": "uint256"
        }
      ],
      "stateMutability": "view",
      "type": "function"
    },
    {
      "inputs": [
        {
          "internalType": "uint256",
          "name": "tokenId",
          "type": "uint256"
        }
      ],
      "name": "tokenURI",
      "outputs": [
        {
          "internalType": "string",
          "name": "",
          "type": "string"
        }
      ],
      "stateMutability": "view",
      "type": "function"
    },
    {
      "inputs": [],
      "name": "totalSupply",
      "outputs": [
        {
          "internalType": "uint256",
          "name": "",
          "type": "uint256"
        }
      ],
      "stateMutability": "view",
      "type": "function"
    },
    {
      "inputs": [
        {
          "internalType": "address",
          "name": "from",
          "type": "address"
        },
        {
          "internalType": "address",
          "name": "to",
          "type": "address"
        },
        {
          "internalType": "uint256",
          "name": "tokenId",
          "type": "uint256"
        }
      ],
      "name": "transferFrom",
      "outputs": [],
      "stateMutability": "nonpayable",
      "type": "function"
    },
    {
      "inputs": [
        {
          "internalType": "address",
          "name": "newOwner",
          "type": "address"
        }
      ],
      "name": "transferOwnership",
      "outputs": [],
      "stateMutability": "nonpayable",
      "type": "function"
    },
    {
      "inputs": [
        {
          "internalType": "uint256",
          "name": "newPrice",
          "type": "uint256"
        }
      ],
      "name": "updateMintPrice",
      "outputs": [],
      "stateMutability": "nonpayable",
      "type": "function"
    },
    {
      "inputs": [],
      "name": "withdraw",
      "outputs": [],
      "stateMutability": "nonpayable",
      "type": "function"
    }
  ],
  "bytecode": "0x60806040523480156200001157600080fd5b5060405162002f7338038062002f738339810160408190526200003491620001d5565b83836000620000448382620002de565b506001620000538282620002de565b505050620000706200006a620000ba60201b60201c565b620000be565b600e6200007e8582620002de565b50600f6200008d8482620002de565b50601082905560118190556012805460ff19166001179055620000b033620000be565b50505050620003aa565b3390565b600b80546001600160a01b038381166001600160a01b0319831681179093556040519116919082907f8be0079c531659141344cd1fd0a4f28419497f9722a3daafe3b4186f6b6457e090600090a35050565b634e487b7160e01b600052604160045260246000fd5b600082601f8301126200013857600080fd5b81516001600160401b038082111562000155576200015562000110565b604051601f8301601f19908116603f0116810190828211818310171562000180576200018062000110565b816040528381526020925086838588010111156200019d57600080fd5b600091505b83821015620001c15785820183015181830184015290820190620001a2565b600093810190920192909252949350505050565b60008060008060808587031215620001ec57600080fd5b84516001600160401b03808211156200020457600080fd5b620002128883890162000126565b955060208701519150808211156200022957600080fd5b50620002388782880162000126565b604087015160609097015195989097509350505050565b600181811c908216806200026457607f821691505b6020821081036200028557634e487b7160e01b600052602260045260246000fd5b50919050565b601f821115620002d957600081815260208120601f850160051c81016020861015620002b45750805b601f850160051c820191505b81811015620002d557828155600101620002c0565b5050505b505050565b81516001600160401b03811115620002fa57620002fa62000110565b62000312816200030b84546200024f565b846200028b565b602080601f8311600181146200034a5760008415620003315750858301515b600019600386901b1c1916600185901b178555620002d5565b600085815260208120601f198616915b828110156200037b578886015182559484019460019091019084016200035a565b50858210156200039a5787850151600019600388901b60f8161c191681555b5050505050600190811b01905550565b612bb980620003ba6000396000f3fe6080604052600436106101f85760003560e01c80636352211e1161010d578063a22cb465116100a0578063e5326ab11161006f578063e5326ab11461058e578063e985e9c5146105a3578063eacabe14146105ec578063f2f18baa146105ff578063f2fde38b1461061257600080fd5b8063a22cb46514610518578063b88d4fde14610538578063c87b56dd14610558578063d5abeb011461057857600080fd5b80637cc1f867116100dc5780637cc1f867146104a95780637d55094d146104d05780638da5cb5b146104e557806395d89b411461050357600080fd5b80636352211e1461043e5780636817c76c1461045e57806370a0823114610474578063715018a61461049457600080fd5b80632f745c591161019057806341d5b8031161015f57806341d5b8031461039e57806342842e0e146103be5780634f6ccce7146103de57806355f804b3146103fe578063603168011461041e57600080fd5b80632f745c591461032257806331f9c919146103425780633ccfd60b1461035c57806340398d671461037157600080fd5b8063095ea7b3116101cc578063095ea7b3146102ae57806318160ddd146102ce57806323b872dd146102ed5780632f39352a1461030d57600080fd5b8062728e46146101fd57806301ffc9a71461021f57806306fdde0314610254578063081812fc14610276575b600080fd5b34801561020957600080fd5b5061021d61021836600461231f565b610632565b005b34801561022b57600080fd5b5061023f61023a36600461234e565b610675565b60405190151581526020015b60405180910390f35b34801561026057600080fd5b50610269610686565b60405161024b91906123bb565b34801561028257600080fd5b5061029661029136600461231f565b610718565b6040516001600160a01b03909116815260200161024b565b3480156102ba57600080fd5b5061021d6102c93660046123ea565b61073f565b3480156102da57600080fd5b506009545b60405190815260200161024b565b3480156102f957600080fd5b5061021d610308366004612414565b610859565b34801561031957600080fd5b5061026961088a565b34801561032e57600080fd5b506102df61033d3660046123ea565b610918565b34801561034e57600080fd5b5060125461023f9060ff1681565b34801561036857600080fd5b5061021d6109ae565b34801561037d57600080fd5b5061039161038c366004612450565b610a39565b60405161024b919061246b565b3480156103aa57600080fd5b506102df6103b936600461256e565b610adb565b3480156103ca57600080fd5b5061021d6103d9366004612414565b610bcb565b3480156103ea57600080fd5b506102df6103f936600461231f565b610be6565b34801561040a57600080fd5b5061021d6104193660046125bc565b610c79565b34801561042a57600080fd5b5061026961043936600461231f565b610c8d565b34801561044a57600080fd5b5061029661045936600461231f565b610cf4565b34801561046a57600080fd5b506102df60115481565b34801561048057600080fd5b506102df61048f366004612450565b610d54565b3480156104a057600080fd5b5061021d610dda565b3480156104b557600080fd5b506104be610dee565b60405161024b969594939291906125f1565b3480156104dc57600080fd5b5061021d610f40565b3480156104f157600080fd5b50600b546001600160a01b0316610296565b34801561050f57600080fd5b50610269610f95565b34801561052457600080fd5b5061021d61053336600461263e565b610fa4565b34801561054457600080fd5b5061021d61055336600461267a565b610faf565b34801561056457600080fd5b5061026961057336600461231f565b610fe7565b34801561058457600080fd5b506102df60105481565b34801561059a57600080fd5b50610269610ff2565b3480156105af57600080fd5b5061023f6105be3660046126f6565b6001600160a01b03918216600090815260056020908152604080832093909416825291909152205460ff1690565b6102df6105fa36600461256e565b610fff565b61039161060d366004612729565b6111b2565b34801561061e57600080fd5b5061021d61062d366004612450565b611439565b61063a6114b2565b60118190556040518181527f66cbca4f3c64fecf1dcb9ce094abcf7f68c3450a1d4e3a8e917dd621edb4ebe09060200160405180910390a150565b60006106808261150c565b92915050565b606060008054610695906127ff565b80601f01602080910402602001604051908101604052809291908181526020018280546106c1906127ff565b801561070e5780601f106106e35761010080835404028352916020019161070e565b820191906000526020600020905b8154815290600101906020018083116106f157829003601f168201915b5050505050905090565b600061072382611531565b506000908152600460205260409020546001600160a01b031690565b600061074a82610cf4565b9050806001600160a01b0316836001600160a01b0316036107bc5760405162461bcd60e51b815260206004820152602160248201527f4552433732313a20617070726f76616c20746f2063757272656e74206f776e656044820152603960f91b60648201526084015b60405180910390fd5b336001600160a01b03821614806107d857506107d881336105be565b61084a5760405162461bcd60e51b815260206004820152603d60248201527f4552433732313a20617070726f76652063616c6c6572206973206e6f7420746f60448201527f6b656e206f776e6572206f7220617070726f76656420666f7220616c6c00000060648201526084016107b3565b6108548383611590565b505050565b61086333826115fe565b61087f5760405162461bcd60e51b81526004016107b390612839565b61085483838361167d565b600f8054610897906127ff565b80601f01602080910402602001604051908101604052809291908181526020018280546108c3906127ff565b80156109105780601f106108e557610100808354040283529160200191610910565b820191906000526020600020905b8154815290600101906020018083116108f357829003601f168201915b505050505081565b600061092383610d54565b82106109855760405162461bcd60e51b815260206004820152602b60248201527f455243373231456e756d657261626c653a206f776e657220696e646578206f7560448201526a74206f6620626f756e647360a81b60648201526084016107b3565b506001600160a01b03919091166000908152600760209081526040808320938352929052205490565b6109b66114b2565b47806109fb5760405162461bcd60e51b81526020600482015260146024820152734e6f2066756e647320746f20776974686472617760601b60448201526064016107b3565b600b546040516001600160a01b039091169082156108fc029083906000818181858888f19350505050158015610a35573d6000803e3d6000fd5b5050565b60606000610a4683610d54565b905060008167ffffffffffffffff811115610a6357610a636124af565b604051908082528060200260200182016040528015610a8c578160200160208202803683370190505b50905060005b82811015610ad357610aa48582610918565b828281518110610ab657610ab6612886565b602090810291909101015280610acb816128b2565b915050610a92565b509392505050565b6000610ae56114b2565b60105460095410610b2d5760405162461bcd60e51b815260206004820152601260248201527113585e081cdd5c1c1b1e481c995858da195960721b60448201526064016107b3565b6001600160a01b038316610b535760405162461bcd60e51b81526004016107b3906128cb565b6000610b5e600c5490565b9050610b6e600c80546001019055565b610b7884826117ee565b610b828184611808565b80846001600160a01b03167fd35bb95e09c04b219e35047ce7b7b300e3384264ef84a40456943dbc0fc17c1485604051610bbc91906123bb565b60405180910390a39392505050565b61085483838360405180602001604052806000815250610faf565b6000610bf160095490565b8210610c545760405162461bcd60e51b815260206004820152602c60248201527f455243373231456e756d657261626c653a20676c6f62616c20696e646578206f60448201526b7574206f6620626f756e647360a01b60648201526084016107b3565b60098281548110610c6757610c67612886565b90600052602060002001549050919050565b610c816114b2565b600d610a358282612950565b6000818152600260205260409020546060906001600160a01b0316610ceb5760405162461bcd60e51b8152602060048201526014602482015273151bdad95b88191bd95cc81b9bdd08195e1a5cdd60621b60448201526064016107b3565b61068082610fe7565b6000818152600260205260408120546001600160a01b0316806106805760405162461bcd60e51b8152602060048201526018602482015277115490cdcc8c4e881a5b9d985b1a59081d1bdad95b88125160421b60448201526064016107b3565b60006001600160a01b038216610dbe5760405162461bcd60e51b815260206004820152602960248201527f4552433732313a2061646472657373207a65726f206973206e6f7420612076616044820152683634b21037bbb732b960b91b60648201526084016107b3565b506001600160a01b031660009081526003602052604090205490565b610de26114b2565b610dec60006118d3565b565b606080600080600080600e600f610e0460095490565b601054601154601254855460ff909116908690610e20906127ff565b80601f0160208091040260200160405190810160405280929190818152602001828054610e4c906127ff565b8015610e995780601f10610e6e57610100808354040283529160200191610e99565b820191906000526020600020905b815481529060010190602001808311610e7c57829003601f168201915b50505050509550848054610eac906127ff565b80601f0160208091040260200160405190810160405280929190818152602001828054610ed8906127ff565b8015610f255780601f10610efa57610100808354040283529160200191610f25565b820191906000526020600020905b815481529060010190602001808311610f0857829003601f168201915b50505050509450955095509550955095509550909192939495565b610f486114b2565b6012805460ff8082161560ff1990921682179092556040519116151581527f6bdfe227d5db299c59aa56d5f846f40dbd73b271aaa78e18ed74fc3e00b8aa6b9060200160405180910390a1565b606060018054610695906127ff565b610a35338383611925565b610fb933836115fe565b610fd55760405162461bcd60e51b81526004016107b390612839565b610fe1848484846119f3565b50505050565b606061068082611a26565b600e8054610897906127ff565b60125460009060ff1661104c5760405162461bcd60e51b81526020600482015260156024820152744d696e74696e67206973206e6f742061637469766560581b60448201526064016107b3565b6011543410156110955760405162461bcd60e51b8152602060048201526014602482015273125b9cdd59999a58da595b9d081c185e5b595b9d60621b60448201526064016107b3565b601054600954106110dd5760405162461bcd60e51b815260206004820152601260248201527113585e081cdd5c1c1b1e481c995858da195960721b60448201526064016107b3565b6001600160a01b0383166111035760405162461bcd60e51b81526004016107b3906128cb565b600061110e600c5490565b905061111e600c80546001019055565b61112884826117ee565b6111328184611808565b601154341115610b825760115433906108fc9061114f9034612a10565b6040518115909202916000818181858888f19350505050158015611177573d6000803e3d6000fd5b5080846001600160a01b03167fd35bb95e09c04b219e35047ce7b7b300e3384264ef84a40456943dbc0fc17c1485604051610bbc91906123bb565b60125460609060ff166111ff5760405162461bcd60e51b81526020600482015260156024820152744d696e74696e67206973206e6f742061637469766560581b60448201526064016107b3565b815160115461120e9190612a23565b3410156112545760405162461bcd60e51b8152602060048201526014602482015273125b9cdd59999a58da595b9d081c185e5b595b9d60621b60448201526064016107b3565b60105482516009546112669190612a3a565b11156112a95760405162461bcd60e51b815260206004820152601260248201527145786365656473206d617820737570706c7960701b60448201526064016107b3565b6001600160a01b0383166112cf5760405162461bcd60e51b81526004016107b3906128cb565b6000825167ffffffffffffffff8111156112eb576112eb6124af565b604051908082528060200260200182016040528015611314578160200160208202803683370190505b50905060005b835181101561139c57600061132e600c5490565b905061133e600c80546001019055565b61134886826117ee565b61136b8186848151811061135e5761135e612886565b6020026020010151611808565b8083838151811061137e5761137e612886565b60209081029190910101525080611394816128b2565b91505061131a565b50600083516011546113ae9190612a23565b9050803411156113f057336108fc6113c68334612a10565b6040518115909202916000818181858888f193505050501580156113ee573d6000803e3d6000fd5b505b846001600160a01b03167f0fccc44f8f4572066001d167eac735aa3f72308ef306fd3af1b0bb0b6a7ba90f83604051611429919061246b565b60405180910390a2509392505050565b6114416114b2565b6001600160a01b0381166114a65760405162461bcd60e51b815260206004820152602660248201527f4f776e61626c653a206e6577206f776e657220697320746865207a65726f206160448201526564647265737360d01b60648201526084016107b3565b6114af816118d3565b50565b600b546001600160a01b03163314610dec5760405162461bcd60e51b815260206004820181905260248201527f4f776e61626c653a2063616c6c6572206973206e6f7420746865206f776e657260448201526064016107b3565b60006001600160e01b0319821663780e9d6360e01b1480610680575061068082611b2e565b6000818152600260205260409020546001600160a01b03166114af5760405162461bcd60e51b8152602060048201526018602482015277115490cdcc8c4e881a5b9d985b1a59081d1bdad95b88125160421b60448201526064016107b3565b600081815260046020526040902080546001600160a01b0319166001600160a01b03841690811790915581906115c582610cf4565b6001600160a01b03167f8c5be1e5ebec7d5bd14f71427d1e84f3dd0314c0f7b2291e5b200ac8c7c3b92560405160405180910390a45050565b60008061160a83610cf4565b9050806001600160a01b0316846001600160a01b0316148061165157506001600160a01b0380821660009081526005602090815260408083209388168352929052205460ff165b806116755750836001600160a01b031661166a84610718565b6001600160a01b0316145b949350505050565b826001600160a01b031661169082610cf4565b6001600160a01b0316146116b65760405162461bcd60e51b81526004016107b390612a4d565b6001600160a01b0382166117185760405162461bcd60e51b8152602060048201526024808201527f4552433732313a207472616e7366657220746f20746865207a65726f206164646044820152637265737360e01b60648201526084016107b3565b6117258383836001611b53565b826001600160a01b031661173882610cf4565b6001600160a01b03161461175e5760405162461bcd60e51b81526004016107b390612a4d565b600081815260046020908152604080832080546001600160a01b03199081169091556001600160a01b0387811680865260038552838620805460001901905590871680865283862080546001019055868652600290945282852080549092168417909155905184937fddf252ad1be2c89b69c2b068fc378daa952ba7f163c4a11628f55a4df523b3ef91a4505050565b610a35828260405180602001604052806000815250611b5f565b6000828152600260205260409020546001600160a01b03166118835760405162461bcd60e51b815260206004820152602e60248201527f45524337323155524953746f726167653a2055524920736574206f66206e6f6e60448201526d32bc34b9ba32b73a103a37b5b2b760911b60648201526084016107b3565b600082815260066020526040902061189b8282612950565b506040518281527ff8e1a15aba9398e019f0b49df1a4fde98ee17ae345cb5f6b5e2c27f5033e8ce79060200160405180910390a15050565b600b80546001600160a01b038381166001600160a01b0319831681179093556040519116919082907f8be0079c531659141344cd1fd0a4f28419497f9722a3daafe3b4186f6b6457e090600090a35050565b816001600160a01b0316836001600160a01b0316036119865760405162461bcd60e51b815260206004820152601960248201527f4552433732313a20617070726f766520746f2063616c6c65720000000000000060448201526064016107b3565b6001600160a01b03838116600081815260056020908152604080832094871680845294825291829020805460ff191686151590811790915591519182527f17307eab39ab6107e8899845ad3d59bd9653f200f220920489ca2b5937696c31910160405180910390a3505050565b6119fe84848461167d565b611a0a84848484611b92565b610fe15760405162461bcd60e51b81526004016107b390612a92565b6060611a3182611531565b60008281526006602052604081208054611a4a906127ff565b80601f0160208091040260200160405190810160405280929190818152602001828054611a76906127ff565b8015611ac35780601f10611a9857610100808354040283529160200191611ac3565b820191906000526020600020905b815481529060010190602001808311611aa657829003601f168201915b505050505090506000611ae160408051602081019091526000815290565b90508051600003611af3575092915050565b815115611b25578082604051602001611b0d929190612ae4565b60405160208183030381529060405292505050919050565b61167584611c93565b60006001600160e01b03198216632483248360e11b1480610680575061068082611d07565b610fe184848484611d57565b611b698383611e8b565b611b766000848484611b92565b6108545760405162461bcd60e51b81526004016107b390612a92565b60006001600160a01b0384163b15611c8857604051630a85bd0160e11b81526001600160a01b0385169063150b7a0290611bd6903390899088908890600401612b13565b6020604051808303816000875af1925050508015611c11575060408051601f3d908101601f19168201909252611c0e91810190612b50565b60015b611c6e573d808015611c3f576040519150601f19603f3d011682016040523d82523d6000602084013e611c44565b606091505b508051600003611c665760405162461bcd60e51b81526004016107b390612a92565b805181602001fd5b6001600160e01b031916630a85bd0160e11b149050611675565b506001949350505050565b6060611c9e82611531565b6000611cb560408051602081019091526000815290565b90506000815111611cd55760405180602001604052806000815250611d00565b80611cdf84612024565b604051602001611cf0929190612ae4565b6040516020818303038152906040525b9392505050565b60006001600160e01b031982166380ac58cd60e01b1480611d3857506001600160e01b03198216635b5e139f60e01b145b8061068057506301ffc9a760e01b6001600160e01b0319831614610680565b6001811115611dc65760405162461bcd60e51b815260206004820152603560248201527f455243373231456e756d657261626c653a20636f6e7365637574697665207472604482015274185b9cd9995c9cc81b9bdd081cdd5c1c1bdc9d1959605a1b60648201526084016107b3565b816001600160a01b038516611e2257611e1d81600980546000838152600a60205260408120829055600182018355919091527f6e1540171b6c0c960b71a7020d9f60077f6af931a8bbf590da0223dacf75c7af0155565b611e45565b836001600160a01b0316856001600160a01b031614611e4557611e4585826120b7565b6001600160a01b038416611e6157611e5c81612154565b611e84565b846001600160a01b0316846001600160a01b031614611e8457611e848482612203565b5050505050565b6001600160a01b038216611ee15760405162461bcd60e51b815260206004820181905260248201527f4552433732313a206d696e7420746f20746865207a65726f206164647265737360448201526064016107b3565b6000818152600260205260409020546001600160a01b031615611f465760405162461bcd60e51b815260206004820152601c60248201527f4552433732313a20746f6b656e20616c7265616479206d696e7465640000000060448201526064016107b3565b611f54600083836001611b53565b6000818152600260205260409020546001600160a01b031615611fb95760405162461bcd60e51b815260206004820152601c60248201527f4552433732313a20746f6b656e20616c7265616479206d696e7465640000000060448201526064016107b3565b6001600160a01b038216600081815260036020908152604080832080546001019055848352600290915280822080546001600160a01b0319168417905551839291907fddf252ad1be2c89b69c2b068fc378daa952ba7f163c4a11628f55a4df523b3ef908290a45050565b6060600061203183612247565b600101905060008167ffffffffffffffff811115612051576120516124af565b6040519080825280601f01601f19166020018201604052801561207b576020820181803683370190505b5090508181016020015b600019016f181899199a1a9b1b9c1cb0b131b232b360811b600a86061a8153600a850494508461208557509392505050565b600060016120c484610d54565b6120ce9190612a10565b600083815260086020526040902054909150808214612121576001600160a01b03841660009081526007602090815260408083208584528252808320548484528184208190558352600890915290208190555b5060009182526008602090815260408084208490556001600160a01b039094168352600781528383209183525290812055565b60095460009061216690600190612a10565b6000838152600a60205260408120546009805493945090928490811061218e5761218e612886565b9060005260206000200154905080600983815481106121af576121af612886565b6000918252602080832090910192909255828152600a909152604080822084905585825281205560098054806121e7576121e7612b6d565b6001900381819060005260206000200160009055905550505050565b600061220e83610d54565b6001600160a01b039093166000908152600760209081526040808320868452825280832085905593825260089052919091209190915550565b60008072184f03e93ff9f4daa797ed6e38ed64bf6a1f0160401b83106122865772184f03e93ff9f4daa797ed6e38ed64bf6a1f0160401b830492506040015b6d04ee2d6d415b85acef810000000083106122b2576d04ee2d6d415b85acef8100000000830492506020015b662386f26fc1000083106122d057662386f26fc10000830492506010015b6305f5e10083106122e8576305f5e100830492506008015b61271083106122fc57612710830492506004015b6064831061230e576064830492506002015b600a83106106805760010192915050565b60006020828403121561233157600080fd5b5035919050565b6001600160e01b0319811681146114af57600080fd5b60006020828403121561236057600080fd5b8135611d0081612338565b60005b8381101561238657818101518382015260200161236e565b50506000910152565b600081518084526123a781602086016020860161236b565b601f01601f19169290920160200192915050565b602081526000611d00602083018461238f565b80356001600160a01b03811681146123e557600080fd5b919050565b600080604083850312156123fd57600080fd5b612406836123ce565b946020939093013593505050565b60008060006060848603121561242957600080fd5b612432846123ce565b9250612440602085016123ce565b9150604084013590509250925092565b60006020828403121561246257600080fd5b611d00826123ce565b6020808252825182820181905260009190848201906040850190845b818110156124a357835183529284019291840191600101612487565b50909695505050505050565b634e487b7160e01b600052604160045260246000fd5b604051601f8201601f1916810167ffffffffffffffff811182821017156124ee576124ee6124af565b604052919050565b600067ffffffffffffffff831115612510576125106124af565b612523601f8401601f19166020016124c5565b905082815283838301111561253757600080fd5b828260208301376000602084830101529392505050565b600082601f83011261255f57600080fd5b611d00838335602085016124f6565b6000806040838503121561258157600080fd5b61258a836123ce565b9150602083013567ffffffffffffffff8111156125a657600080fd5b6125b28582860161254e565b9150509250929050565b6000602082840312156125ce57600080fd5b813567ffffffffffffffff8111156125e557600080fd5b6116758482850161254e565b60c08152600061260460c083018961238f565b8281036020840152612616818961238f565b91505085604083015284606083015283608083015282151560a0830152979650505050505050565b6000806040838503121561265157600080fd5b61265a836123ce565b91506020830135801515811461266f57600080fd5b809150509250929050565b6000806000806080858703121561269057600080fd5b612699856123ce565b93506126a7602086016123ce565b925060408501359150606085013567ffffffffffffffff8111156126ca57600080fd5b8501601f810187136126db57600080fd5b6126ea878235602084016124f6565b91505092959194509250565b6000806040838503121561270957600080fd5b612712836123ce565b9150612720602084016123ce565b90509250929050565b6000806040838503121561273c57600080fd5b612745836123ce565b915060208084013567ffffffffffffffff8082111561276357600080fd5b818601915086601f83011261277757600080fd5b813581811115612789576127896124af565b8060051b6127988582016124c5565b918252838101850191858101908a8411156127b257600080fd5b86860192505b838310156127ee578235858111156127d05760008081fd5b6127de8c89838a010161254e565b83525091860191908601906127b8565b809750505050505050509250929050565b600181811c9082168061281357607f821691505b60208210810361283357634e487b7160e01b600052602260045260246000fd5b50919050565b6020808252602d908201527f4552433732313a2063616c6c6572206973206e6f7420746f6b656e206f776e6560408201526c1c881bdc88185c1c1c9bdd9959609a1b606082015260800190565b634e487b7160e01b600052603260045260246000fd5b634e487b7160e01b600052601160045260246000fd5b6000600182016128c4576128c461289c565b5060010190565b6020808252601b908201527f43616e6e6f74206d696e7420746f207a65726f20616464726573730000000000604082015260600190565b601f82111561085457600081815260208120601f850160051c810160208610156129295750805b601f850160051c820191505b8181101561294857828155600101612935565b505050505050565b815167ffffffffffffffff81111561296a5761296a6124af565b61297e8161297884546127ff565b84612902565b602080601f8311600181146129b3576000841561299b5750858301515b600019600386901b1c1916600185901b178555612948565b600085815260208120601f198616915b828110156129e2578886015182559484019460019091019084016129c3565b5085821015612a005787850151600019600388901b60f8161c191681555b5050505050600190811b01905550565b818103818111156106805761068061289c565b80820281158282048414176106805761068061289c565b808201808211156106805761068061289c565b60208082526025908201527f4552433732313a207472616e736665722066726f6d20696e636f72726563742060408201526437bbb732b960d91b606082015260800190565b60208082526032908201527f4552433732313a207472616e7366657220746f206e6f6e20455243373231526560408201527131b2b4bb32b91034b6b83632b6b2b73a32b960711b606082015260800190565b60008351612af681846020880161236b565b835190830190612b0a81836020880161236b565b01949350505050565b6001600160a01b0385811682528416602082015260408101839052608060608201819052600090612b469083018461238f565b9695505050505050565b600060208284031215612b6257600080fd5b8151611d0081612338565b634e487b7160e01b600052603160045260246000fdfea26469706673582212208945b59288b25edf49651f3dd40e9fc41ee809c568f74aa830142c4299eca27e64736f6c63430008130033",
  "linkReferences": {},
  "deployedLinkReferences": {}
}